:020000040800F2
:1000000080040020A10100083F1400089513000897
:100010003D140008D10200084B1800080000000041
:10002000000000000000000000000000571500085C
:10003000D3020008000000005515000859150008FB
:10004000BB010008BB010008BB010008BB010008A0
:10005000BB010008BB010008BB010008BB01000890
:10006000BB010008BB010008BB010008BB01000880
:10007000BB010008BB010008BB010008BB01000870
:10008000BB010008BB010008BB010008BB01000860
:10009000BB010008BB010008BB010008BB01000850
:1000A000BB010008BB010008BB010008BB01000840
:1000B000BB010008BB010008BB010008BB01000830
:1000C000BB010008BB010008BB010008BB01000820
:1000D000BB010008BB010008BB010008BB01000810
:1000E000BB010008BB010008BB010008BB01000800
:1000F000BB010008BB010008BB010008BB010008F0
:10010000BB010008BB010008BB010008BB010008DF
:10011000BB010008BB010008BB010008BB010008CF
:10012000BB010008BB010008BB010008BB010008BF
:10013000BB010008BB010008BB010008BB010008AF
:10014000BB010008BB010008BB010008BB0100089F
:10015000BB010008BB010008BB010008BB0100088F
:10016000BB010008BB010008BB010008BB0100087F
:10017000BB010008BB010008BB0100080000000033
:10018000BB010008BB010008DFF810D000F08EF8BA
:10019000004800478D180008AFF30080800400205D
:1001A0000648804706480047FEE7FEE7FEE7FEE711
:1001B000FEE7FEE7FEE7FEE7FEE7FEE7F5150008CF
:1001C000890100082DE9F05F0546002092469B4614
:1001D00088460646814640241BE02846414647465D
:1001E000224600F053F853465A46C01A914110D3A4
:1001F00011461846224600F03AF82D1A67EB01081E
:100200004F4622460120002100F031F817EB00098B
:100210004E41201EA4F10104DFDC484631462A4647
:100220004346BDE8F09F40EA01039B0703D009E085
:1002300008C9121F08C0042AFAD203E011F8013BD2
:1002400000F8013B521EF9D27047D2B201E000F82B
:10025000012B491EFBD270470022F6E710B513466A
:100260000A4604461946FFF7F0FF204610BD202A33
:1002700004DB203A00FA02F1002070479140C2F1FD
:10028000200320FA03F3194390407047202A04DB2F
:10029000203A21FA02F00021704721FA02F3D040FF
:1002A000C2F120029140084319467047064C074DA1
:1002B00006E0E06840F0010394E807009847103436
:1002C000AC42F6D3FFF764FF501A0008701A00081A
:1002D000FEE7704772B6FEE7002229B101291AD065
:1002E00002291BD04FF440720E490B6823F440736F
:1002F0000B600B6813430B600A6822F078020A60F7
:100300000A68022303EBC00002430A60086840F455
:100310008030086070474FF48072E5E74FF4007258
:10032000E2E70000103C02401348016889050FD540
:10033000016821F400710160016841F4006101600D
:10034000016821F400610160016841F400710160FD
:10035000016849050FD5016821F4806101600168D9
:1003600041F480510160016821F48051016001680D
:1003700041F4806101607047003C024008490A680E
:1003800022F440720A600A6842F004020A600A68B5
:100390004FF4803343EA002002430A6070470000B4
:1003A000103C0240064A136823F44073136013683C
:1003B0001360136843F0010313600170704700007D
:1003C000103C0240094910B50C6824F440740C60DC
:1003D0000C6844F440740C600C6844F001040C6038
:1003E0000260BFF36F8F436010BD0000103C0240FD
:1003F000074A136823F440731360136843F480734F
:100400001360136843F0010313600180704700001C
:10041000103C0240074A136823F4407313601368CA
:1004200043F400731360136843F001031360016029
:1004300070470000103C024017490868C206174880
:1004400005D5C26942F01002C26110220A600A6832
:10045000920605D5C26942F00802C26120220A60F4
:100460000A68520605D5C26942F00402C261402200
:100470000A600A68120605D5C26942F00202C2612A
:1004800080220A600A68920705D5C26942F02002FC
:10049000C2610220086070470C3C024060000020EE
:1004A00070B5114904460020C86100F097FA06466D
:1004B0000E4D09E0601C07D024B100F08FFA801BBC
:1004C000A04201D9032070BD2868C003F2D4286877
:1004D000C00701D001202860286810F0F200F2D097
:1004E000FFF7AAFF012070BD600000200C3C024015
:1004F00070B5044600F072FA0546601C02D004484C
:100500000078044400F06AFA401BA042FAD370BDA0
:10051000080000202DE9F047044622480F46017EDE
:1005200001290AD00121804601764CF25039484613
:10053000FFF7B6FF020003D02FE00220BDE8F087EE
:100540004FF0FF3038602068174D012801D0A668B1
:100550001CE0207C6168FFF711FF4846FFF7A0FF11
:100560000246286820F00400286014E0217C304610
:10057000FFF7B2FE4846FFF793FF0200286820F01D
:100580007A00286001D03E6005E0761CD4E90210B4
:100590000844B042EAD8FFF7C7FE002188F81810D7
:1005A0001046CBE760000020103C02400348016881
:1005B00041F000410160002070470000103C024003
:1005C0002DE9F0471B4E05461446307E1F468946EE
:1005D000012808D0012030764CF250384046FFF711
:1005E0005FFF18B114E00220BDE8F0879DB1012D36
:1005F00016D0022D19D022463B464846FFF7E2FEB0
:100600004046FFF74DFF0C490A6822F001020A60DC
:1006100000213176E8E7E1B24846FFF7C3FEEFE795
:10062000A1B24846FFF7E4FEEAE721464846FFF755
:10063000F1FEE5E760000020103C02400749002081
:100640000A68002A09DA054A054B0C3A1360054B83
:1006500013600968002900DA01207047103C02404D
:1006600023016745AB89EFCD2DE9F04F0022DFF87C
:1006700038B101264FF00F0906FA02F401EA04032B
:10068000A3427DD122F003075F44D7F8088895077D
:100690004FEA157C09FA0CFA0AEA0805DFF80C8122
:1006A000404502D14FF0000832E0DFF804814045B8
:1006B00002D14FF001082BE0DFF8F880404502D16D
:1006C0004FF0020824E0DFF8F080404502D14FF0FF
:1006D00003081DE0DFF8E480404502D14FF0040834
:1006E00016E0DFF8DC80404502D14FF005080FE04E
:1006F000DFF8D080404502D14FF0060808E0DFF86F
:10070000C880404502D14FF0070801E04FF00808CB
:1007100008FA0CF8A84522D12C4DD5F800C02CEAD7
:10072000030CC5F800C005F1040CDCF800509D4333
:10073000CCF80050254D0C35D5F800C02CEA030C40
:10074000C5F800C02D1FD5F800C02CEA030CC5F871
:1007500000C0D7F8085825EA0A05C7F80858056800
:1007600057000323BB409D430560D50800EB85057A
:10077000D5F820C057074FEAD76809FA08F700E014
:100780000CE02CEA070CC5F820C0C5689D43C56085
:100790004568A543456084689C438460521C102AC8
:1007A000FFF46AAFBDE8F08F003001400000024066
:1007B0000004024000080240000C02400010024009
:1007C0000014024000180240001C0240003C01409E
:1007D0002DE9F84FDFF8BCA10022012503264FF0D8
:1007E0000F090AF1040BAAF1040E00BF0B6805FA09
:1007F00002F42340A34270D10F7907F00307012FC1
:1008000001D0022F16D187684FEA420806FA08FC89
:1008100027EA0C07D1F80CC00CFA08FC4CEA070CCC
:10082000C0F808C04768A7430C79C4F3001494408B
:100830003C4344600C79E443A4070AD0C4684FEAFF
:10084000420C06FA0CF7BC438F6807FA0CF72743F3
:10085000C7600C7904F00304022C12D1D40800EB19
:10086000840CDCF820405707FF0E09FA07F824EA49
:100870000804D1F8108008FA07F848EA0408CCF810
:10088000208004684FEA420C06FA0CF7BC430F794B
:1008900007F0030707FA0CF7274307604C6814F4C6
:1008A000403F70D03C4C276847F48047276024685D
:1008B00022F0030704F480440094384C07EB040C46
:1008C000DCF8084897074FEA177809FA08F7BC439D
:1008D000334FB84202D1002724E054E0314FB842F0
:1008E00001D101271EE0304FB84201D1022719E0A3
:1008F0002E4FB84201D1032714E02D4FB84201D149
:1009000004270FE02B4FB84201D105270AE02A4FF8
:10091000B84201D1062705E0284FB84201D1072788
:1009200000E0082707FA08F72743CCF80878DAF838
:1009300000405746D1F804C09C435FEACC2C00D558
:100940001C433C60DBF800405F46D1F804C09C4388
:100950005FEA8C2C00D51C433C60DEF800407746F3
:10096000D1F804C09C435FEA8C3C00D51C433C603A
:10097000084F083F3C68D1F804C09C435FEACC3C78
:1009800000D51C433C60521C102AFFF42FAFBDE879
:10099000F88F0000083C014044380240003001401C
:1009A000000002400004024000080240000C024027
:1009B000001002400014024000180240001C0240D7
:1009C000426921EA02030A4043EA02418161704719
:1009D0000AB1816170470904FBE7000001488068A3
:1009E0007047000008000020024881680278114426
:1009F00081607047080000200B4810B5016841F481
:100A000000710160016841F480610160016841F496
:100A100080710160032000F061F80F2000F006F8FB
:100A200000F024F8002010BD003C024070B50D4DD0
:100A300004464FF47A712878B1FBF0F00A4909684E
:100A4000B1FBF0F000F0A8FB48B9102C07D200224F
:100A50002146501E00F022F800206C6070BD01207D
:100A600070BD000008000020140000200A4808B5EE
:100A7000016841F480410160006800F4804000900A
:100A80000548001F016841F080510160006800F0D6
:100A90008050009008BD000044380240F0B40E4B76
:100AA0001B680C46C3F30223C3F10705042D00D9CC
:100AB0000425191D072901D2002300E0DB1E0126B1
:100AC00006FA05F1491E214099409E40761E1640C7
:100AD0003143F0BC00F0BABE0CED00E0064900F076
:100AE000070208684FF6FF03184040EA0220034A55
:100AF00010430860704700000CED00E00000FA05AC
:100B0000BFF34F8F05480168054A01F4E0611143C6
:100B10000160BFF34F8F00BFFDE700000CED00E068
:100B20000400FA052DE9F0470E46050065D0DFF810
:100B30001481D8F80000F7B200F00700B04207D2E5
:100B400088F80070D8F8000000F00700B04254D1D7
:100B500028683D4C810712D5400703D5206840F432
:100B6000E05020602878000703D5206840F46040FA
:100B700020602068A96820F0F000084320602878F1
:100B8000C0072DD0304968680839012812D00228E2
:100B900013D0032811D00968890700292DDA2168AC
:100BA00021F0030101432160FFF718FF814641F264
:100BB000883A0EE009688903EFE709688901ECE7E4
:100BC000FFF70CFFA0EB0901514502D90320BDE856
:100BD000F0872068696800F00C00B0EB810FEFD15E
:100BE000D8F80010404601F00701B14207D907705C
:100BF000006800F00700B04201D00120E7E7287844
:100C0000400705D52068E96820F4E05008432060DB
:100C10002878000706D52068296920F4604040EA5A
:100C2000C100206000F0D2F82168084AC1F3031126
:100C3000515CC8400649086006480068FFF7F6FEA8
:100C40000020C4E7003C024008380240381A00087F
:100C5000140000200C0000202DE9F041FFF7BEFE3B
:100C6000444C0546206840F00100206005E000BFCC
:100C7000FFF7B4FE401B022847D820688007F7D54D
:100C8000206840F080002060FFF7A8FE0546394E3E
:100C900000200836306041F2883704E0FFF79EFEFE
:100CA000401BB84231D8306810F00C0FF6D1FFF776
:100CB00095FE0546206820F45020206005E000BF26
:100CC000FFF78CFE401B64281FD820688003F7D4F0
:100CD000FFF784FE0546206820F08070206004E065
:100CE000FFF77CFE401B02280FD820688001F7D454
:100CF000FFF774FE0546206820F08060206007E062
:100D0000FFF76CFE401B022802D90320BDE8F081EA
:100D100020680001F4D417491748091D08601549D7
:100D200016488431086013480C30016821F4F851EA
:100D30000160016821F400510160016841F41F0164
:100D40000160016841F4001101600A4874300168D3
:100D500021F001010160016841F0807101600949E1
:100D60000748086008480068FFF760FE0028CDD0FB
:100D70000120CBE700380240103000040030002092
:100D80000024F400140000200C0000200448054951
:100D900000680968044AC1F38221515CC840704769
:100DA0001400002008380240481A00080448054989
:100DB00000680968044AC1F34231515CC840704779
:100DC0001400002008380240481A0008154810B5E1
:100DD000006810F00C02144813D04110042A0FD000
:100DE000082A0ED10F4C241F2268236802F03F020C
:100DF0005B0207D52068C0F38810A0FB010106E064
:100E0000084610BD2168C1F38811A1FB0001002331
:100E1000FFF7D8F92168C1F30141491C4900B0FB33
:100E2000F1F010BD083802400024F4002DE9F84F1D
:100E300004006ED02078DFF84C93C007A9F10405B8
:100E40004AD009F104000168C1F38101012908D0E9
:100E50000068C0F3810002280AD1D9F800004002DE
:100E600006D52868800337D560680028E1D033E0D4
:100E70006068B0F5803F10D0B0F5A02F286810D082
:100E800020F480302860286820F480202860606882
:100E9000A8B1FFF7A3FD06460DE0286840F48030B6
:100EA000F4E740F480202860F7E700BFFFF796FDE5
:100EB000801B642873D828688003F7D50CE0FFF7FF
:100EC0008DFD064605E000BFFFF788FD801B642806
:100ED000F0D828688003F7D42078DFF8AC82800748
:100EE0004FF0000A3ED5A748001D016811F00C0F15
:100EF00008D00068C0F3810002280BD1D9F80000A7
:100F0000400207D42868800716D5E068012800D180
:100F100012E033E1E068B8B10120C8F80000FFF743
:100F20005DFD064605E000BFFFF758FD801B022867
:100F3000C0D828688007F7D52868216920F0F80014
:100F400040EAC10028600DE0C8F800A0FFF746FDA8
:100F5000064604E0FFF742FD801B02281FD82868E0
:100F60008007F7D42078000722D5864F874861692B
:100F7000703771B101210160FFF730FD064604E0D2
:100F8000FFF72CFD801B022809D838688007F7D5A9
:100F90000EE0C0F800A0FFF721FD064605E082E064
:100FA000FFF71CFD801B02287DD838688007F7D426
:100FB0002078400768D5DFF8CCB100270BF13C0B57
:100FC000DBF80000C0000BD4DBF8001041F08051CA
:100FD000CBF80010DBF80000012700F080500090F3
:100FE0006B4E3068C00510D4306840F480703060BB
:100FF000FFF7F4FC009005E0FFF7F0FC0099401AC1
:10100000022850D83068C005F6D55E4EA0686C3610
:1010100001280FD00528306810D020F00100306082
:10102000306820F004003060A068B8B1FFF7D6FC4B
:1010300000900FE0306840F00100F4E740F0040059
:101040003060F7E7FFF7CAFC0099411A41F2883097
:10105000814266D830688007F4D50EE0FFF7BEFC09
:10106000009007E0FFF7BAFC0099411A41F288307E
:10107000814256D830688007F4D42FB1DBF80010D5
:1010800021F08051CBF80010A069C8B33D49091D7B
:101090000968C1F3810102294AD00228504607D0CD
:1010A000C8F8600000E03CE0FFF798FC04463BE035
:1010B0004746C8F86000FFF791FC064605E000BF10
:1010C000FFF78CFC801B02282BD828688001F7D4FE
:1010D000D4E907010843A16A2E4A490802EB0141FD
:1010E000626A41EA8211084394F82C1040EA0161D7
:1010F000C9F8001001203866FFF770FC044606E0CE
:101100003EE000BFFFF76AFC001B022809D82868F0
:101110008001F7D534E000BFFFF760FC001B022818
:1011200002D90320BDE8F88F28688001F4D427E0B5
:101130000128F7D0D9F80000E26900F4800191425B
:101140001CD1226A00F03F01914217D147F6C071CD
:10115000626A0140B1EB821F10D1A26A4FF0FF33E7
:1011600000F4403103EB5202B1EB024F06D194F888
:101170002C1000F07060B0EB016F01D00120D1E7BE
:101180000020CFE70438024000004742800E47426B
:10119000007000400000FFFF10B5401EB0F1807FDE
:1011A00001D3012010BD4FF0E02460610F216017D2
:1011B00000F04CFB0020A06107202061002010BD42
:1011C00010B5040015D0242084F841002068C168BF
:1011D00021F40051C160204600F040F80020606416
:1011E00084F8410084F8420044F8300F60602074B5
:1011F00010BD012010BD70B5040004D094F841006A
:10120000002510B106E0012070BD84F84050204652
:1012100000F03AF8242084F841002068C16821F4E5
:101220000051C160204600F051FA2068016921F4A4
:10123000904101612068416921F02A0141612068E3
:10124000C16841F40051C1606564202084F8410008
:1012500084F842006563002070BD00000068074903
:10126000884209D10648016821F0100101604FF45D
:10127000C0610448FFF7F8B9704700000010014052
:10128000443802400000024010B586B004461421E4
:101290006846FEF7E1FF14492068884221D11348CF
:1012A0000021026842F010020260006800F01000A5
:1012B00005900E481438026842F00102026000688E
:1012C00000F0010005904FF4C06000900220CDE9CD
:1012D0000101032003900720049069460448FFF7AA
:1012E00077FA06B010BD00000010014044380240FB
:1012F000000002402DE9F843044690F8410098466A
:1013000016460D46202802D00220BDE8F88385B19C
:101310007EB100206064212084F84100FFF75EFB6D
:10132000A6848146E684A0682027B0F5805F02D0BD
:1013300003E00120E9E7206910B12E4600250EE008
:1013400000260CE08021204600F046FAA8B9C6B17C
:1013500016F8010B21684860E08C401EE084E08CA8
:101360004B464FF00002CDF800800028EAD14FF044
:101370004001204600F030FA40B184F8417003206B
:10138000C3E735F8020BC0F30800E3E784F84170C7
:101390000020BAE7FEE7000070B586B01421684669
:1013A000FEF75AFF15480024016841F0040101606E
:1013B000016801F004010591016841F080010160BC
:1013C000016801F080010591016841F001010160AF
:1013D0000068012200F00100094E550305902946DE
:1013E0003046FFF7F5FA01200095CDE90104694682
:1013F00030460394FFF7ECF906B070BD3038024078
:10140000000802400C4810B50A4901604FF4E13170
:101410004160002181600C22C160C0E90412816139
:10142000C161FFF7E8FE002803D0BDE81040FEF7D9
:1014300051BF10BD0010014018000020FEE7FEE77C
:101440002DE9F04387B016460D4607460024FFF706
:10145000F5F822A000F0FEF800200190022005908F
:10146000042003900490694601A8FFF753F868B17F
:1014700020A000F0EFF8009800F0FAF824A000F0A7
:10148000E9F8FFF793F807B0BDE8F08321A000F07A
:10149000E1F84FF40058DFF8949017E03A59291911
:1014A00000230220FFF78CF848B121A000F0D2F809
:1014B000281900F0DDF816A000F0CCF808E0A0052F
:1014C00003D141464846FFF77BFA241DB442E5D3D9
:1014D000FFF76CF81BA000F0BDF8D4E7457261730C
:1014E000696E672041505020417265612E2E2E0D8D
:1014F0000A0000004572617365204661696C65648D
:101500002120536563746F7220436F64653A200035
:101510000D0A0000436F7079696E67204669726D2D
:10152000776172652E2E2E0D0A0000000008024021
:101530005772697465204572726F722061743A2027
:1015400000000000436F707920446F6E65210D0A22
:101550000000000070477047FFF746BA30B593B0FF
:1015600030216846FEF778FE14210CA8FEF774FEC1
:101570001E480025016841F080510160006800F0BC
:10158000805011901A48016841F480410160006860
:10159000022400F48040119001200090000401908A
:1015A0008001CDE90640082008904FF4A870CDE9ED
:1015B000090404200B906846FFF738FC08B172B6A6
:1015C000FEE70CA90F2081E831004FF4A0500F90E6
:1015D0004FF48050109005210CA8FFF7A3FA0028C3
:1015E00001D072B6FEE713B030BD000040380240B3
:1015F000007000400248016841F4700101607047CA
:1016000088ED00E001680C3151E8002F22F490725F
:1016100041E80023002BF5D10168143151E8002F77
:1016200022F0010241E80023002BF5D1016B0129D2
:1016300009D101680C3151E8002F22F0100241E875
:101640000023002BF5D1202180F8421000210163F6
:1016500070470000002201E0521C92B2815C002918
:10166000FAD1014664230148FFF744BE1800002068
:1016700030B589B0044614220FA16846FEF7D3FDA9
:1016800030208DF8140078208DF815000021684670
:101690000DF1140204F00F03C1F10905C35C240924
:1016A000491C53550829F5DB00208DF81E00104613
:1016B000FFF7D0FF09B030BD303132333435363723
:1016C00038394142434445460000000070B50446A5
:1016D00000680169E26821F4405111430161216908
:1016E000A068E26908436169114308432168CA6838
:1016F00049F20C639A430243CA6020684169A269B7
:1017000021F440711143416131492068884202D07F
:101710003049884202D1FFF749FB01E0FFF736FB71
:10172000E2690023192164253226B2F5004F626870
:1017300028D0A0FB0101930F9200FEF743FD014664
:10174000B0FBF5F06FF01802504301EB800006EBA0
:101750000010B0FBF5F000F0F002B1FBF5F002EB89
:101760000012B1FBF5F06FF01803584301EB800055
:1017700006EB0010B0FBF5F000F00F0021681044FC
:10178000886070BDA0FB010192185B41FEF71AFD55
:101790000146B0FBF5F00201B1FBF5F06FF0180364
:1017A000584301EB800006EBC000B0FBF5F000F001
:1017B000F80002EB4002B1FBF5F0584301EB80006A
:1017C00006EBC000B0FBF5F000F00700D6E7000024
:1017D00000100140001401402DE9F84398461746D7
:1017E0000D460446089E24E0701C22D0FFF7F6F850
:1017F000A0EB0800B0421AD8CEB12068C1684907F2
:1018000017D5802D15D0402D13D00168C943090785
:101810000FD401680025406800902046FFF7F2FED3
:101820000820606484F840500120BDE8F88303205C
:10183000FBE72068006835EA000004D00020B842C9
:10184000D2D00020F1E70120F9E7FEE70907090EF1
:10185000002804DB00F1E02080F80014704700F05D
:101860000F0000F1E02080F8141D704702E008C866
:10187000121F08C1002AFAD170477047002001E00A
:1018800001C1121F002AFBD17047000086B0FFF78C
:10189000B3F8FFF763FEFFF77FFDFFF7B3FD37A057
:1018A000FFF7D8FE3B4E4FF4005500222946304644
:1018B000FFF78EF8C820FEF71BFE374800680027A8
:1018C000364CB0F1AA3F10D035A0FFF7C3FE206818
:1018D0003D490840B0F1005F31D029463046FFF75E
:1018E0006FF86420FEF704FEF7E738A0FFF7B2FEBA
:1018F000002229463046FFF76BF84FF400322146AC
:101900003948FFF79DFD39A0FFF7A4FEFEF796FECC
:10191000022004900320029001200390009705A963
:101920006846FEF7F7FDFEF741FE37A0FFF792FE8F
:101930004FF4FA70FEF7DCFDFFF7E2F8C7E701228B
:10194000A84629463046FFF743F860682546384CDC
:10195000606020603748FFF733FC41463046FEF7B1
:1019600083FEFFF779F972B64FF0E020076128682F
:1019700080F3088820688047FEE700005374617296
:101980007420426F6F746C6F616465722E2E2E0D21
:101990000A0000000008024000C000080000010822
:1019A0005B426F6F745D204E6F205570646174658B
:1019B0002E204C61756E6368696E67204170702ED1
:1019C0002E2E0D0A000000000000F02F5B4F544146
:1019D0005D2055706461746520466C6167204465C4
:1019E00074656374210D0A00000008085B4F5441C0
:1019F0005D20436C656172696E6720466C61672E7D
:101A00002E2E0D0A000000005B4F54415D205570E2
:101A10006461746520436F6D706C6574652120523C
:101A20006573657474696E672E2E2E0D0A000000B2
:101A3000000000201800002000000000000000004E
:101A40000102030406070809000000000102030464
:101A5000701A000800000020180000006C18000830
:101A6000881A000818000020680400007C1800088C
:101A70000000000000000000010000001000000055
:081A8000000000000024F40046
:040000050800018965
:00000001FF
